:020000021000EC
:10B0000000400020B9D80100F9D80100FBD80100A8
:10B010000000000000000000000000000000000030
:10B02000000000000000000000000000FDD801004A
:10B030000000000000000000FFD8010001D901005D
:10B0400009BE010003D9010091C6010003D9010026
:10B0500003D901000000000025C2010003D901004E
:10B0600003D9010003D9010003D9010003D901006C
:10B0700003D9010003D9010003D9010003D901005C
:10B0800003D9010041B4010003D9010003D9010033
:10B090001DB5010003D901008DDB010003D90100BA
:10B0A00003D9010003D901000000000000000000E6
:10B0B0000000000000000000000000000000000090
:10B0C00010B5064C2378002B07D1054B002B02D07E
:10B0D000044800E000BF0123237010BDF8180020D1
:10B0E0000000000038DE0100084B10B5002B03D033
:10B0F0000749084800E000BF07480368002B00D15B
:10B1000010BD064B002BFBD09847F9E7000000006C
:10B11000FC18002038DE0100F418002000000000B8
:10B12000164B002B00D1144B9D46402292029A1AD6
:10B13000924600218B460F461348144A121A00F01B
:10B1400065F80F4B002B00D098470E4B002B00D01A
:10B1500098470020002104000D000D48002802D06F
:10B160000C4800E000BF00F02DF82000290001F09D
:10B1700031FE00F011F8C046000008000040002039
:10B180000000000000000000F8180020601B0020F4
:10B190000000000000000000084B10B50400002B68
:10B1A00002D0002100E000BF054B1868836A002B25
:10B1B00000D09847200000F031F8C04600000000A1
:10B1C0004CDD010070B500260C4D0D4C641BA41025
:10B1D000A64209D1002602F0ADFD0A4D0A4C641BBF
:10B1E000A410A64205D170BDB300EB5898470136B4
:10B1F000EEE7B300EB5898470136F2E7EC18002071
:10B20000EC180020EC180020F01800200300821831
:10B21000934200D1704719700133F9E7FEE7C04649
:10B22000F8B54E46DE4657464546E0B5224B1978FE
:10B23000994600292AD0214B00249846204B214FC3
:10B2400001269A4603E00134E4B28C421ED2434602
:10B250001B6832009C46E500654428783B688240C4
:10B260001342F0D093433B6000F0D2FF33002A78C2
:10B270005146934009680B40010091408B420BD02E
:10B280004B4601341978E4B28C42E0D33CBC904682
:10B290009946A246AB46F8BD6B689B46002BEFD0A3
:10B2A000697801394B424B41191A4D424D4110000A
:10B2B000E9B2D847E4E7C046141900204419002039
:10B2C0003C19002040190020F8B5124D0700280055
:10B2D00000F0A0FC002807D10124BC400E4E3368CA
:10B2E000234202D0A3433360F8BD380000F090FF42
:10B2F0000A4A136800280BD02343136033680022E6
:10B300001C43074B28001968346000F023FCEBE76E
:10B31000A343F2E71C190020401900203C1900202B
:10B3200018190020F0B54746CE4680B50D0007003D
:10B3300083B014000720042A04D803B00CBC904644
:10B340009946F0BD00F05CFE00282DD0194B1A4A3A
:10B350001F601A4B1D701A4B1C6000231360194AA2
:10B360006C1E1360E4B2002D18D0174B00269946CE
:10B370000323984601AD4246E300FB182A70AE70E5
:10B38000EE709A7818786A7029004A4600F042FEFA
:10B390000028D2D1013CE4B2FF2CECD10B4A0021B1
:10B3A0000B4800F0BDFBC8E700F0F0FD0028CDD051
:10B3B000C3E7C046441900203C190020141900209E
:10B3C0001819002040190020C9B2010021B2010063
:10B3D00050DD010070B5094D2B78002B0BD00024F7
:10B3E000074E3268E300985C012100F0BDFE2B7827
:10B3F0000134A342F5D8002070BDC04614190020C6
:10B4000044190020002300B585B001AA90600021F6
:10B4100003481380536000F005F805B000BDC04636
:10B4200001400000BFF34F8F034A044BDA60BFF3C3
:10B430004F8FC046FDE7C0460400FA0500ED00E06E
:10B44000A021F0B50023C6462B4A490000B5535051
:10B450000431535004315350043153504C3953503C
:10B4600004315350254B1B68002B35D0244900264E
:10B470005458244A244F1268A41A00222402240A91
:10B48000904602E0002D18D02B001A68A24214D872
:10B49000A41AB6181A7CDD69002AF3D042469969CD
:10B4A0001A745A693B68002B19D01000984700287D
:10B4B000E8D0FFF7A7FF002DE6D11449144A0B7816
:10B4C00012789A420ED0134A9B009E50802180230E
:10B4D000114A49035B00D15004BC9046F0BD0800FE
:10B4E0009047CFE70132D3B2022B01D00B70EAE7CD
:10B4F00000230B70E7E7C0460010014068190020E8
:10B50000040500006419002048190020611900207A
:10B51000601900205819002000E100E0F0B55746FE
:10B52000DE464E464546E0B5AE4BAF4A1B68AF49D6
:10B530009A46097813788BB0994200D118E101330B
:10B54000DBB2022B00D117E11370A94A9B009E5871
:10B5500053469B191B02A34A1B0A1360012306933F
:10B56000A44B00201B789B46A34B5A461B68984669
:10B57000A04B45465C785B68474603939D4B9B78A0
:10B580000493984B1B6809939C4B1B7807930023EB
:10B59000089305930193A2421CD003995300894656
:10B5A0009B1804990132DB00D2B24B448A4200D18D
:10B5B000D4E01978022900D1A0E00329EBD1002FB3
:10B5C000E9D03874FF69002FFBD1012300250193D6
:10B5D000A242E2D1019B91469C46059B002B00D0E4
:10B5E000D9E0089B002B02D07E4B099A1A60634673
:10B5F000002B01D0804B1D60069B002B00D067E123
:10B600004346DB1B5A1E93410025DBB206937B4B5E
:10B610003E001B780793734B1B689846764B1B685C
:10B6200001930023029305939C46754B9A46002D87
:10B6300028D06B68A9682C00ED6942469A1A12025C
:10B64000120A524551D85218226063466360A360C3
:10B65000012323746346E361002E00D1BAE0316810
:10B660003000914205D3ADE01968914200D397E0D4
:10B670001800C369521A002BF6D12260E361C4613D
:10B68000002DD6D15B464846984200D1BCE00399D4
:10B690005A008946D21804990133D200DBB24A44D9
:10B6A000994200D19BE00124117805940129EBD146
:10B6B0005468217C05910029E6D19B469368814618
:10B6C0006360D168A1601069E0605269A261079A65
:10B6D000002A00D1F5E0059B0592636042460023F5
:10B6E0009A1A1202120A5245ADD94246D31A1B02C7
:10B6F0001B0A8B425AD2CA1A2260A6E75B68002F47
:10B7000000D148E73900BB422AD09146019A9446BD
:10B710001A0002E09A4207D01900CB69002BF9D138
:10B7200063464A46019336E7634602920193029BC1
:10B730004A4699468B4214D04B461B6802934B46AF
:10B74000DB699946CB61002B00D124E71B68494691
:10B750009C46029B2F0063440B601CE7002228E7F5
:10B76000B946FF69002F09D001233D000193E3E7AB
:10B77000002300260693F3E60023E5E60125214B8E
:10B780009D60012301930893002309930133002551
:10B7900005930793D0E76A46184B127F1A7020E78B
:10B7A000891A19602260E361C46169E76346236016
:10B7B0006360A360012323746346E361002E09D014
:10B7C0000022316801238A1A32600194E6610293F3
:10B7D00026002CE7012301942600029327E700238B
:10B7E00061E7C0466419002060190020611900203B
:10B7F000581900204C190020681900205419002005
:10B80000FEFF7F0000100140059B002B00D0D9E017
:10B81000029B002B02D06D4B019A1A60BE4253D09E
:10B82000002E00D197E06A4A6A496B4C885842461C
:10B83000821A12022578120A33680332002D21D1B0
:10B840008025D1266D02B6008D51403E8D51C02716
:10B850008026624DB6027F00EE512E6001250D60FC
:10B860005F49604F0E682F21C046C046C046C046A3
:10B87000C046C046C046C046BE4200D0C0460139A0
:10B88000F2D12570934200D21300A82443445149B9
:10B890001B021B0AE4004E4D0B514A591B1A121A87
:10B8A0001202120A1B0203321B0A9A4239D80023E1
:10B8B0004D4A13700BB03CBC90469946A246AB462D
:10B8C000F0BD01220592B8E6069B002BEFD0A7E75A
:10B8D0003E4B00241B6800250021002013E03A683D
:10B8E000B24218D8F968B61AA4183860FB69002962
:10B8F00007D05246FD613D0012191202120A7A6009
:10B90000B9601F000699002FE9D1002900D17EE619
:10B910002E4A13607BE6002900D050E0961B3E6063
:10B9200075E64B590B512E4B2E491A682F23C046F2
:10B93000C046C046C046C046C046C046C0468A4211
:10B9400000D0C046013BF2D180218023234A8902E6
:10B950005B00D150ABE780218023204A8902D1507F
:10B960008023D22101241B4A5B02890053504039B5
:10B9700053501B4B546019682F231A481D00C046B2
:10B98000C046C046C046C046C046C046C0468142CA
:10B9900000D0C046013DF2D19460144A1660C04602
:10B9A000C046C046C046C046C046C046C0468142AA
:10B9B00000D0C046013BF2D1074B1E7077E7034928
:10B9C0000B60ABE70A4B187022E7C04668190020ED
:10B9D00004050000001001405519002000E100E0BE
:10B9E000E81800200024F4005419002064190020F5
:10B9F0004C190020F0B55746DE464E464546032416
:10BA0000E0B583B00700019314400720002C06D056
:10BA100003B03CBC90469946A246AB46F0BD002A16
:10BA2000F6D08026314DB60279302E50802040026B
:10BA30008046D22043462E4E80003350403833504B
:10BA40000120706081462B48006884462A48804661
:10BA50002F208346C046C046C046C046C046C046AA
:10BA6000C046C046C44500D0C0460138F2D1484661
:10BA7000B0605846C046C046C046C046C046C046F4
:10BA8000C046C046C44500D0C0460138F2D11B486C
:10BA9000019B04701A4803601A4BFF201C709970B8
:10BAA0005C705A60184B80221C60184BC5211C70BA
:10BAB000174B52031C70C0235B00EA5089006B587F
:10BAC00083433F3803436B50A123DB002A600439D2
:10BAD000F7506B580F4A00201A40C0231B02134333
:10BAE0006B500D4BF2580D4B1A6091E700E100E0EE
:10BAF00000100140E81800200024F400551900202F
:10BB0000481900204C1900206819002060190020F5
:10BB100061190020FF00FFFF0405000064190020E8
:10BB200010B50B4B5B68002B0BD0002A07D0002808
:10BB300005D0036808201C7C002C04D010BD072011
:10BB4000FCE70820FAE759745A610020F6E7C0467E
:10BB50004C190020F0B5C64600B52A4C82B0636887
:10BB600005000E001700002B08D0002806D0072083
:10BB7000042905D802B004BC9046F0BD0820F9E7BE
:10BB80006B69002BFAD06B7C012B30D000239846D8
:10BB90006A460023D01DD37100F07EF86178A37847
:10BBA0004A1CD2B2934224D02378934223D04B0034
:10BBB0005B186168DB008C466344002B1BD00121BD
:10BBC0001148197011495D604158DE609960414625
:10BBD0005F6119616B46D879627000F07DF8802151
:10BBE00080230B4A49035B00D1500020C2E78846FE
:10BBF000CEE70022D8E76B46D87900F06DF8042034
:10BC0000B8E7C0464C1900200010014004050000B0
:10BC100000E100E070B51E4C0500636882B00820AA
:10BC2000002B2BD0002D29D06B69002B26D06A4623
:10BC30000023D61D2B743000337000F02DF861788E
:10BC4000A2784B1CDBB29A421AD022789A4219D0C1
:10BC50004A0052186168D2008C466244002A11D012
:10BC60000221117055603078637000F035F8802142
:10BC700080230020074A49035B00D15002B070BD09
:10BC80000023E2E7307800F027F80420F6E7C0460A
:10BC90004C19002000E100E0F0B5EFF3108172B61E
:10BCA0000A4B5A68002A0DD101248025084E5C6099
:10BCB0007459084F3C401C6077510270002900D134
:10BCC00062B6F0BD01230370F8E7C046581B0020A0
:10BCD00000E100E0FC06FFBC10B5084B5A68002AE2
:10BCE0000BD0002809D1EFF3108272B604491C680A
:10BCF0000C605860002A00D162B610BD581B0020AD
:10BD000000E100E0A022044BD205D358034A125CA4
:10BD10000120D340984370470405000054DD010022
:10BD2000044BA0211A5C01239340034AC9058B50A0
:10BD30007047C04654DD01000C050000044BA021F3
:10BD40001A5C01239340A122C905D2008B50704791
:10BD500054DD0100A022A1238021D205DB0049028D
:10BD6000D15080214901D15080210902D150704722
:10BD7000A0228021054BD2054902D15080214901E2
:10BD8000D15080210902D1507047C0460C050000F7
:10BD9000A02210B5074BD205D158074B185C0123E0
:10BDA00083401C00A1208C430B400449C000145068
:10BDB000535010BD0405000054DD01000C050000C7
:10BDC000A023E8210322DB05C9005A5010395A503C
:10BDD00006495A50A1228021D2004902995080215F
:10BDE0004901995080210902995070473C07000091
:10BDF000082806D01238431E9841012340421843B8
:10BE000070470020FCE7C04610B51A4B1A68002A9C
:10BE100014D0002280211A60C2220123164C920005
:10BE2000C9058B506370A368002B07D01A680020E7
:10BE30005B68A2609847A368002BF7D10F4B1A6884
:10BE4000002A15D000221A60C223802202219B0002
:10BE5000D205D1500123084CA3702369002B07D0D1
:10BE60001A6801205B68226198472369002BF7D18B
:10BE700010BDC046000100406C19002004010040C4
:10BE800010B500280BD1064CA368002B07D01A6808
:10BE900000205B68A2609847A368002BF7D110BD13
:10BEA0006C19002030B583B06B46DD1D00232800DF
:10BEB0002B70FFF7F1FE144C2378002B09D0E368B8
:10BEC00028780133E3600123A370FFF705FF03B077
:10BED00030BD6360A3602361E3600C4B1B68DB072C
:10BEE0000CD501F0FBFD002805D1A3238022012100
:10BEF000DB00D205D15001232370E0E703210020AD
:10BF000000F006F8EDE7C0466C19002000E100E003
:10BF1000F0B500281EDB1B4A03249446FF221700BD
:10BF20008308C026C0B20440E4008901A7400A404B
:10BF3000A2409B006344B6009D59BD432A439A51D9
:10BF40001F23C02118401E3B83400E4A4900535016
:10BF50001360F0BDFF240C4A0325944622000F23F2
:10BF6000C0B20540ED008901AA400C40AC4003403E
:10BF7000083B9B089B006344DE6996433443DC61C5
:10BF8000DEE7C04600E100E000ED00E070B54425CA
:10BF9000184C0820665D002E00D070BD01234022A1
:10BFA000FF215B42A3540132A1540132A354236206
:10BFB00001326362A362E36223636363A363E363A7
:10BFC000FC390238A35423606360A360E3602361FB
:10BFD0006361A361E361FFF79BFF074B80211E6054
:10BFE000C123064A9B000906D15001230020635556
:10BFF000D3E7C046801900207C610040006000400B
:10C000004423034AD05C431E9841C0B27047C046E7
:10C0100080190020F0B5C64600B5504C08252318FD
:10C0200020331E787F2E03D8280004BC9046F0BD34
:10C03000CD78AC46002D33D00425A84625680126CE
:10C04000013500D185E0B500635901332FD0731C51
:10C050009D00675901372BD0B31C43451ED29D006C
:10C060006759013724D0F31C434517D29D00675907
:10C0700001371DD0331D434510D29D00675901374C
:10C0800016D0731D434509D29D00675901370FD063
:10C090000636464502D2E36901333ED00425C3E7A4
:10C0A0002569013530D0082305269846CBE73300B3
:10C0B0006251624627185EB220373E70002A28D0AF
:10C0C0008B78002B14D10300A0254A78C133FF33AD
:10C0D00092009B00ED055A51CB78002B20D1A4197A
:10C0E0003C340B7822789B011343237000259BE797
:10C0F000A022D2059446E025022783006344ED0088
:10C100005A59BA435A51E7E7042504261D700423FF
:10C110002261E3183C331870D2E707231C25C7E7D8
:10C120000F4AB6009446A2226644D2000B780D4C0A
:10C13000B15800022140F82464012040C024B150CD
:10C140001B04A402B158234018430843B0500025F3
:10C150006AE7002622601E70B2E7C0468019002000
:10C1600000600040FFE0FCFF0023F0B5254C2218E2
:10C170002032D356032B18DDE3183C331B789B0980
:10C18000032B33D0012B39D0C025AD02A023DB0512
:10C190009C46E02380006044DB00C1581A4C2140DB
:10C1A000C150C2582A43C250F0BDD8B20328FBD8B0
:10C1B000164DA227AC46012698006044FF00C559E1
:10C1C0003543C5511800654600274030800080B2D5
:10C1D00047510029E8D0127852B292001259002A31
:10C1E000E2D09E40C1239B00EE50DDE7A223A022B7
:10C1F000DB00D205D358C340DB07C5D48025AD0290
:10C20000C4E7C04680190020FFFFFCFF006000402B
:10C21000A223A022DB00D205D358C340012018403E
:10C220007047C046F0B5DE4657464E4645460021AB
:10C23000E0B5C54A87B0039113680024012B00D1F3
:10C24000B4E1C24B1A68012A00D1A3E1C04B1A68BD
:10C25000012A00D192E1BF4B1A68012A00D181E185
:10C26000BD4B1A68012A00D161E123071CD0BB4BEA
:10C27000A22798460323012600259946FF0026425F
:10C280000ED0B74AAB009A18D059D1594246D3586C
:10C29000002B05D04A46090CC0041140C00E984737
:10C2A00001357600042DEAD1002C06DB07B03CBC3A
:10C2B00090469946A246AB46F0BD00230493013B4D
:10C2C0000593C1339A46B93B9B464023A34AD156B6
:10C2D0004B1C2DD0C9B2534608005A46984301233F
:10C2E0000A409340C60805AA925D134220D09B4A9B
:10C2F0009A4C121820321278890952B29200A25830
:10C30000002A00D1F1E0032900D1F1E0A025ED05DC
:10C31000AC46E02587006744ED007D5903ACA65D7F
:10C32000AD03AD0F334200D0B9E0032D00D187E15A
:10C3300002230093013B0326994600254123874AA7
:10C34000D1564B1C2FD0C9B2534608005A469843C9
:10C3500001230A409340C70805AAD25D134222D0A8
:10C360007E4A7E4C121820321278890952B292000D
:10C37000A2580192002A00D1C8E0032900D1C8E0E8
:10C38000A024E405A04682009044E0224446D20066
:10C39000A25803ACE75D9203920F3B4200D08FE0BE
:10C3A000032A00D137E142236C4AD1564B1C2DD0D1
:10C3B000C9B2534608005A46984301230A409340A5
:10C3C000C70805AAD25D134220D0644A634C1218F4
:10C3D00020321278890952B29200A658002E00D15C
:10C3E0008CE0032900D18BE0A024E405A446820060
:10C3F0009444E0226446D200A25803ACE75D920365
:10C40000920F3B4268D1032A00D1EFE04323534A05
:10C41000D1564B1C2AD0C9B2534608005E469843F9
:10C4200001230E40B340C20805AEB65C33421DD0B6
:10C430004A4C890926182036367876B2B600A659B5
:10C44000002E6CD003296CD0A024E405A4468700FC
:10C45000BC44E0276446FF00E75903ACA25CBF037D
:10C46000BF0F134212D1032F00D1A8E0002D00D13D
:10C470001CE7A223A022DB00D205D358039A9A42DC
:10C4800000D113E70393049B05931EE7022FEDD120
:10C49000032900D1EEE0002EE8D0B047E6E7022DF8
:10C4A00000D045E7032900D1E7E002230093013BD8
:10C4B000032699460025002A00D13FE790473DE733
:10C4C000022A00D06FE7032900D1DAE0019B002B9C
:10C4D00000D168E7984766E7022A97D1032900D17F
:10C4E000C5E0002E92D0B04790E7032900D01FE7A7
:10C4F00004ACA5192F781F432F7007E7032985D1B6
:10C5000004AAD21914781C4314706DE7032900D0D3
:10C5100049E704AAD21914781C43147030E70329A0
:10C52000A4D104ACA7183C781C433C708CE70022D3
:10C530001A6080231B061C43A022A223D205DB0025
:10C54000D358039391E6C046006100400461004067
:10C55000086100400C6100407C61004080190020AF
:10C5600000600040C12248499200895808220A42CE
:10C5700000D175E600211443196071E6C1224249D9
:10C580009200895804220A4200D164E60021144333
:10C59000196060E6C1223C499200895802220A4291
:10C5A00000D153E60021144319604FE6C120364CF8
:10C5B000800024581C4000D143E6116041E6032965
:10C5C00000D068E78027BF02E0236246DB00D55831
:10C5D0002E4A644615406246D550D2584D463A43DD
:10C5E000E250002E00D144E7B0473FE7032900D0D6
:10C5F00077E78027BF02E0236246DB00D558234A55
:10C60000644615406246D550D2584D463A43E250F2
:10C61000009B994665E7032900D057E78027BF02B2
:10C62000E02342464446DB00D258184D2A40E250EF
:10C63000E2584D463A43E250009B0096994645E742
:10C64000032900D031E780239B029C46E023644607
:10C65000DB00FE580D4D2E40FE50FD5804262543AC
:10C66000FD5003230093013B9946012523E7C02792
:10C67000BF02C0E7C027BF02A6E7C0239B029C46BB
:10C68000E4E7C027BF02CBE700600040FFFFFCFFEC
:10C69000C12310B5614A9B00D35884B09B054FD588
:10C6A00092235B00D15800294AD00021D15081212A
:10C6B000E5338900FF33D150594B997E002901D1D0
:10C6C00001315160022269460A7090215348C90025
:10C6D0004258425069460392DA7D68460A72DA6827
:10C6E000196801920022DA751A765B6898478E21E4
:10C6F0004A4A49005358002B0FD0494B9C8A987DD9
:10C7000084424FD200205050998A9868405C998AA0
:10C71000013189B29982434BD050A2233F4A5B003A
:10C72000D15800290AD00021D1503D4B997E0029D3
:10C7300001D001211160DA7D002A42D104B010BD80
:10C74000C123364A9B00D3585B07D0D584214900CA
:10C750005358002BCBD0324BD87D00283ED15050BF
:10C76000A321C90052585A7E8242C0D11A7E002AA3
:10C7700042D19A7E002A02D10121284A51608120AB
:10C78000C22226498000920088500022684601217A
:10C79000DA755A7E01700272DA68196801925B6874
:10C7A0009847A4E7002454500028B6D06A46147075
:10C7B00010729A689C75196801925B686846984780
:10C7C000ABE7002268460121DA755A7E01700272D9
:10C7D000DA68196801925B689847AFE7002050500B
:10C7E000A320C000597E1258D86842545A7ED87D82
:10C7F0000132D2B25A76B6E7DA751A69D968DA60C8
:10C8000000226C46587E1A765A76013220720191C7
:10C810002270196868465B68984768E70020004006
:10C82000C81900201C05000010B50220FFF7B0FA5F
:10C8300010BDC046F8B5CE46474680B505000E008F
:10C84000FFF7D6FA0400012803D90CBC904699469C
:10C85000F8BD012E1ED0002E0FD0022EF5D14300C0
:10C860001C4C1B18E4186678002EEED01A4B1B687F
:10C87000002BEAD030009847E7E71848FFF7CAF9DD
:10C880006200144B12199B189E78154B1B5DB34226
:10C89000DBD1E9E70F4F430098461B18FE5CFB18FD
:10C8A0005B78002B06D143461B19FF18BA780C4B56
:10C8B0001A55D9E70B4B094899460B4B4A461B685A
:10C8C0009900C9184900FFF745F90028EBD14B46FC
:10C8D0001D70E8E72C1A00205C1A00200C1A0020BA
:10C8E000641A0020E4190020081A002070B5724B69
:10C8F0001B68DB0700D470BD704E714D33782C7807
:10C90000002B05D1172CF6D86E4AA300D3589F46AA
:10C9100000233370FFF71EFAF4E701230120337080
:10C92000FFF736FA684B00221B6868489900C9185F
:10C93000FFF710F9DFE7012301203370FFF728FA32
:10C94000614B002219686148FFF704F9D3E7604D95
:10C950002800FFF75FF911231C1B00D18EE000288F
:10C9600000D08BE0012C0BD0C8306421604301F073
:10C970004BF9554B0022196841432800FFF7EAF8AC
:10C980000220FFF7CDF9B6E7FFF7E4F912232B7089
:10C99000B1E7FFF7DFF90020FFF7C2F913232B708F
:10C9A000A9E7FFF7E5F92C70A5E7FFF7D3F9002316
:10C9B0002B70A0E70020FFF7A5F9002862D0002027
:10C9C000FFF7BCF92823022C55D02C7022E0FFF78A
:10C9D000CFF90C232B708EE7FFF7BCF90020FFF78F
:10C9E0009FF90120FFF79CF915232B7083E7FFF7D0
:10C9F000B1F90120FFF794F914232B707BE7002095
:10CA0000FFF780F9002850D00020FFF797F908239E
:10CA100003222A702C4A2D48116800225943FFF73F
:10CA200099F868E70020FFF76DF9002833D000205F
:10CA3000FFF784F928230422EBE70020FFF770F9C1
:10CA400007232B7057E70020FFF75CF9002828D058
:10CA50000020FFF773F905232B701B4B0022196888
:10CA60001A484900FFF776F845E70020FFF790F9EC
:10CA700006232B7064E7163B2C70CBE70220FFF7F0
:10CA80005DF938E70020FFF74BF90423022C9CD115
:10CA9000023B2C70BEE70020FFF742F9042304227A
:10CAA000B7E70020FFF73CF9D5E70020FFF738F99A
:10CAB00002230322ADE7C046341A0020381A0020B2
:10CAC000601A002058DD0100081A00203C1A0020DE
:10CAD000E819002010B50078FFF78AF9012800D97D
:10CAE00010BD43001B180548C01840780028F7D037
:10CAF000034B1B68002BF3D09847F1E72C1A00205A
:10CB00005C1A002070B57F4B05001B680024DB0712
:10CB100001D4200070BD7C4E3378002B06D1172D38
:10CB200000D9EDE0794AAB00D3589F463470FFF747
:10CB300011F9F4E7012301203370FFF729F9744B51
:10CB400000221B6873489900C918FFF703F8040016
:10CB5000DFE7012301203370FFF71AF96C4B002245
:10CB600019686C48FEF7F6FF0400D2E7FFF7F2F809
:10CB70000120FFF7D5F81422674B00241A70C8E78C
:10CB80000020FFF7CDF80722634B00241A70C0E79E
:10CB9000FFF7E0F80020FFF7C3F80120FFF7C0F827
:10CBA00015225D4B00241A70B3E70020FFF7AAF8A6
:10CBB000002800D199E00020FFF7C0F808230321E6
:10CBC000554A117076E00020FFF79CF8002800D14C
:10CBD00085E00020FFF7B2F828230421F0E70020C9
:10CBE000FFF790F8002800D184E00020FFF7A6F8B6
:10CBF0000522494B47481A70454B002219684900E5
:10CC0000FEF7A8FF040084E70020FFF7C1F8062222
:10CC1000414B1A70A2E7FFF7ABF80C223E4B002401
:10CC20001A7076E73D4E3000FEF7F4FF0400112045
:10CC3000451B48D0002C46D1012D0CD0B7306421C3
:10CC4000684300F0E1FF324B002219684143300095
:10CC5000FEF780FF04000220FFF762F859E7FFF7B4
:10CC600079F812222C4B00241A7052E7FFF772F861
:10CC70000020FFF755F81322274B00241A7048E7CD
:10CC8000FFF776F8244B00241D7042E7FFF762F8A7
:10CC90000022214B00241A703BE70020FFF732F8F6
:10CCA000002814D00020FFF749F82823022D25D0B2
:10CCB000194A1570164A1748116800225943FEF7A1
:10CCC00049FF040025E70220FFF738F821E700209C
:10CCD000FFF726F80423022DEAD1023BE8E7002003
:10CCE000FFF71EF8042304216AE70020FFF718F875
:10CCF000022364E70020FFF713F879E7163BD7E734
:10CD0000002406E7341A0020381A0020B8DD01009C
:10CD1000081A00203C1A0020601A0020E8190020A0
:10CD20001E4B70B519601E4B040018601D4B1A6035
:10CD300083070FD50E221C4B1C481A700132DA7083
:10CD40004A080221FEF7EEFA051E19D0E30712D4B5
:10CD5000280070BDC3070DD4154A00211548FEF701
:10CD6000DFFE051EF4D1144A01211448FEF7D8FE57
:10CD70000500EDE70025FFF723F8002DE8D1EBE7EC
:10CD8000FEF728FB051EE1D10D4A00210D48FEF7F4
:10CD9000C7FE0500E307F0D5EDE7C046081A0020FE
:10CDA000341A00205C1A00202C1A002018DE010022
:10CDB000EDC8010030DE010029C8010028DE0100B5
:10CDC000D5CA01002CDE010070DF704773DF7047A9
:10CDD00048DF704730B5002397B03D4A0521002059
:10CDE000FEF708FE002801D0FEF70CFB00223949AF
:10CDF0000120FFF795FF002801D0FEF703FB364B1B
:10CE000048221B6835490193039303A8002300F0CF
:10CE10006BFE002801D0FEF7F5FA07AD2A000021CD
:10CE2000002000F0CBFE002801D0FEF7EBFA002333
:10CE300004AC2370FE336370A3703E3BE370AB3BE6
:10CE400023713833637128009133A37100F0CEFE53
:10CE5000002801D0FEF7D6FA21000020FFF7B4FF2A
:10CE6000592323801E4B0021A36017233C22280056
:10CE7000A380FEF7CBF9002300212B702800043398
:10CE8000EB706C6200F0D8FA002801D0FEF7BAFA15
:10CE9000144C182200212000FEF7B8F90323237058
:10CEA000002363602372A03323612000FFF78EFF0D
:10CEB000002801D0FEF7A6FA0220FFF723FE002883
:10CEC00003D1FFF785FF0028FBD0FEF79BFAF8E7B8
:10CED000681A0020CD0C000034DE0100E01A0020AA
:10CEE000D0180020281B002071DF704772DF7047C8
:10CEF00079DF70477DDF704765DF7047F0B5DE464C
:10CF000057464E464546E0B587B09B4610AB914626
:10CF100004CB07001B88029101931388904603936A
:10CF20000388002B00D16EE000239A4604AB002456
:10CF3000DD1C03E03B880134A3422EDD7B68A100A9
:10CF40009C460422614405A800F0EAFE0022290064
:10CF500005A8FFF7D1FF061E2BD12B784B45E9D151
:10CF60005346002B2DD043461A884B460199D318BF
:10CF70008B421DDC5A44290005A8FFF7BDFF00289D
:10CF80003BD142462B78128801349B1842461380CD
:10CF900001239A463B88A342D0DC5346002B32D073
:10CFA00043461B88039A013B9B1A9BB2FF2B26D951
:10CFB0000C26300007B03CBC90469946A246AB46D2
:10CFC000F0BD43464A461B8801999A1802328A42AC
:10CFD000EEDC4246013369469BB213805A46097A19
:10CFE00005A8D15443461A882900013292B21A800A
:10CFF0005A44FFF781FF0028C3D00600D9E711008B
:10D000005A465354D5E70026D3E7C046F0B55746F5
:10D010004E464546DE460023E0B5178813802D3383
:10D020001400C25C87B005000E000023002A50D116
:10D03000AA78002A00D078E0E978002934D16A681B
:10D04000002A14D0D91CB94226D802211278F154F2
:10D050002388083101339BB22380F154238852B2D4
:10D0600001339BB22380F2542388013323802B8920
:10D07000002B00D031E12B8A002B00D047E12B8B15
:10D08000002B00D05DE12B6A002B00D1B0E022889C
:10D09000911DB94200D869E00C2007B03CBC904615
:10D0A0009946A246AB46F0BDDA1CBA42F4D8022239
:10D0B000F2542388013A01339BB22380F25423882F
:10D0C00001339BB22380F154238801339BB2238028
:10D0D000B5E70C20082FE0D904A8FFF705FF0028CA
:10D0E000DBD1082223880921F2542388133201332B
:10D0F0009BB22380F25402AB9C462088153A013043
:10D1000080B220806144301800F00AFE238802AA11
:10D110000633127A9BB22380002A00D00122F254F7
:10D12000238801339BB2238082E704330C20BB4267
:10D13000B3D804A8FFF7DCFE0028AED10322238871
:10D14000F2542388163201339BB22380F254238891
:10D1500002AA01339BB212892380F3181A70120AB3
:10D160005A70238802339BB2238065E719888A4668
:10D17000052900D8AFE0AD48504480B28046AC48A5
:10D180008446804500D8A6E058888146052800D806
:10D19000A1E0A64869468046C8444046C881C8897F
:10D1A000604500D897E0A348824504D0814502D06D
:10D1B000CA4500D98FE00521B15422880D310132D2
:10D1C00092B22280B1542288013292B22280198810
:10D1D000B2181170090A51702288023292B222806C
:10D1E0005988B2181170090A5170238802332380BC
:10D1F0006B6A9846002B2FD0998820888A1C831C44
:10D200009B18BB4200D947E7FE2A00D944E7FF221A
:10D2100003313154238801339BB22380F2544246B8
:10D22000238801339BB223801288F3181A70120AE4
:10D230005A7043462088023080B220809A88002AA3
:10D240000AD09968002946D0301800F069FD42469E
:10D25000238892889B1823802C23EB5C002B00D022
:10D260008FE02B780020002B00D116E72A880720BA
:10D27000012A00D111E72288901CB84200D90BE79F
:10D28000012B05D16B7802339B189F4200D203E734
:10D29000023FBF1ABFB202AB301804A91F81FFF7CB
:10D2A00029FE002800D0F8E62B78022B00D1B5E04B
:10D2B000012B60D00822FE2F00D9EDE62388791CCF
:10D2C000F154238801339BB22380F2542388013325
:10D2D000FF182780E1E60720DFE608239846A844E8
:10D2E000019700943300022202214046FFF706FE18
:10D2F000002800D0D1E601970094330010220621C7
:10D300004046FFF7FBFD002800D1B4E6C5E6102338
:10D310009846A84401970094330002220321404616
:10D32000FFF7ECFD002800D0B7E60197009433002A
:10D33000102207214046FFF7E1FD002800D19EE6BC
:10D34000ABE618239846A8440197009433000222C4
:10D3500014214046FFF7D2FD002800D09DE601973A
:10D3600000943300102215214046FFF7C7FD002826
:10D3700000D188E691E66B789F429BD31F0008227C
:10D3800099E7AB6A9846002BA5D09B880233FE2B09
:10D3900000D981E600229146163292461632934613
:10D3A0002088524601333354238801339BB22380B3
:10D3B000F2544246238801339BB223801288F3182B
:10D3C0001A70120A5A7043462088023080B22080B8
:10D3D0009A88002A0CD09968002900D17BE7301880
:10D3E00000F09EFC434620889B88C01880B22080B5
:10D3F0004B460133DBB299465B46EB5C4B4500D8AC
:10D400002FE74B46AA6A5B0090464B449B0098442A
:10D4100043469B880233FE2BC3D93DE602AB1B89F2
:10D420009F4200D246E71F00092244E77FF3FFFF37
:10D430007DF30000FFFF0000F0B54646D6464F469C
:10D440001F23C0B596B002AA04000E00D3810028A5
:10D450002ED0C078430724D5002302AA93812D3310
:10D46000E35C002B00D06EE1A3780EAF002B00D060
:10D47000A6E100230021032206AD02276F54591CA8
:10D4800002339BB289B2013F6F54E85493B202AAAF
:10D4900093816268002A39D0D91C1F2929D90C2010
:10D4A00000E0072016B01CBC90469946A246F0BD8D
:10D4B000002502AB9881002E16D0F378002BF0D116
:10D4C00002AA94460E2363441A000EA93000FFF707
:10D4D0009DFD0028E6D102AB9B7B0EAA02A9097B29
:10D4E0002800FFF703FDDDE702ABDE810022002309
:10D4F000F4E70020105602220A27EA545A1C02338D
:10D500009BB292B2AF54E85402AB99812389002BAD
:10D5100000D0BEE0238A002B00D0D8E0238B002B64
:10D5200000D0F2E0226A002A3DD002AB9B89991D0F
:10D530001F29B4D8108882460528B2D9D34F574442
:10D54000BFB2B846D24FBC46B845AAD95788B946EB
:10D55000052FA6D9CD4F6846B846C8444746C7816F
:10D56000C78967459DD9CB4FBA4504D0B94502D08C
:10D57000CA4500D995E705201227E854581C80B207
:10D580002F54981C80B202AFB881178828180770F2
:10D590003F0A4770043352889BB2EB181A70120A84
:10D5A0005A7002AB9981676A002F2FD0BB88991CF3
:10D5B000984602AB9B899A1C50181F2800D96EE729
:10D5C000FE2900D96BE740460330E854FF20591C80
:10D5D00089B2685492B202A98A813988AA180433A0
:10D5E000117098B2090A02AB51709881BA88002A6A
:10D5F0000CD0B968002900D153E7281800F090FB3F
:10D6000002ABBA889B899B1802AA93812C23E15C08
:10D61000002900D0EFE02378002B00D14BE72288CF
:10D620000720012A00D13DE702AA9289901C1F28F9
:10D6300000D934E7012B04D163781B181F2B00D9C4
:10D640002DE71D230EAF9A1A93B228183900984679
:10D650003B80FFF74FFC002800D023E72378022B04
:10D6600000D119E1012B00D11DE1434608213B8087
:10D670004346FE2B00D912E7424602AB9B8901329A
:10D68000EA545A1C92B20233A954434402AA938129
:10D6900011E71F23270098460837019305AB009335
:10D6A00002222B0002213800FFF728FC002800D0BE
:10D6B000F8E64346019305AB009310222B000621A8
:10D6C0003800FFF71BFC002800D123E7EAE61F2300
:10D6D000270098461037019305AB009302222B00D8
:10D6E00003213800FFF70AFC002800D0DAE64346A1
:10D6F000019305AB009310222B0007213800FFF7A0
:10D70000FDFB002800D109E7CCE61F23270098463F
:10D710001837019305AB009302222B001421380027
:10D72000FFF7ECFB002800D0BCE64346019305ABB5
:10D73000009310222B0015213800FFF7DFFB002893
:10D7400000D1EFE6AEE60EAF3800FFF7CDFB0028C4
:10D7500000D0A7E6082202AB9B8906ADEA545A1C0A
:10D76000023398B21B2102AB9C4692B2A9541631E7
:10D77000988106226144281800F0D2FA02AB9B89F6
:10D7800002A99A1D92B28A813978002900D001211C
:10D790000733A9549BB202AA9381A278002A0AD126
:10D7A000E078002800D174E6DA1C19001F2A00D89E
:10D7B00063E60C2076E604330C201F2B00D971E6BB
:10D7C0003800FFF795FB002800D06BE603221921F3
:10D7D00002AB9B8906ADEA545A1C92B2A9549A1C1A
:10D7E000398892B2AA1811700433090A51709BB299
:10D7F00002AA9381D4E7A76A002F00D151E6BB8823
:10D800000233FE2B00D94AE602AA908900229046F4
:10D8100016329146163292464A4601332B54431C27
:10D820009BB2EA54831C9BB202AA93813A88EB18FC
:10D830001A700430120A5A7080B202AB9881BA880A
:10D84000002A0FD0B968002900D12AE6281800F074
:10D8500067FA02AB9889BB88C01880B202AB988186
:10D860005346E15C43460133DBB298468B4200D31A
:10D87000D1E643465F00A36A47449C46BF00674425
:10D88000BB880233FE2BC7D90C200BE67FF3FFFFCA
:10D890007DF30000FFFF00003B88984500D2E4E6DE
:10D8A00098460921E4E66378984500D2DDE63B809E
:10D8B00098460821DCE6C04603210A4802680A436C
:10D8C0000260094802680A4302600849084A094B95
:10D8D0009B1A03DD043BC858D050FBDC00F012F863
:10D8E000FDF71EFC240500405405004044DE010005
:10D8F00070180020F8180020FEE7FEE7FEE7FEE7BC
:10D90000FEE7FEE72E4B1B78012B00D070472D4B16
:10D910001B681B07FAD1F0222B4B1B68134027D141
:10D920002A4B1B6813422BD0264B1B681B07EDD1DB
:10D93000F022254B1B681340402B2DD0F022224BA8
:10D940001B681340A02B01D0D02BDFD1F0231F4A3E
:10D9500012681A42DAD11E4A1368012B04D01D4BFB
:10D9600013601368012BFCD1C0221B4B1A60CDE75A
:10D97000102B01D0302BDBD1144B1B681342D7D1B5
:10D98000164A174B1A608022164B12021A600C4B73
:10D990001B78012BC8D0B9E70C4B1B681342CDD1C3
:10D9A000C12380220121DB00D205D150044B1B781A
:10D9B000012BABD1034B1B681B07BFD0A6E7C046AA
:10D9C000E00F00F0E40F00F0E80F00F0EC0F00F0C3
:10D9D00000EC06407593000014EC0640DFFF07C022
:10D9E00004050040186C004052DF704710DF70479C
:10D9F00060DF704761DF704710B5FDF713FD10BDA4
:10DA0000F0B557464546DE464E46E0B52E4B2F4F05
:10DA10001D689A466B425D412D4B83B099462D4B54
:10DA2000EDB298462C4B9B463C78E4B2002C3BD19F
:10DA300001A8FFF7D9FF05283DD0002825D0FDF724
:10DA4000E1FC002D2CD13D78EDB2002D08D02BE06B
:10DA5000FDF7D8FC002CE7D03B780124002B23D124
:10DA60004B466A461B8801A9938043461E683000D6
:10DA7000FFF7C0FF052815D00028E9D15346300034
:10DA80001B689847002CE7D1CEE70198FEF7F8F91C
:10DA90005B461B68002B12D001989847002DD2D00E
:10DAA0000125C1E7002CFBD003B03CBC9046994651
:10DAB000A246AB46F0BD002DF6D10124C3E7002DF0
:10DAC000C1D00125B0E7C046441B00204D1B0020FB
:10DAD000401B0020541B0020501B0020014B1878D5
:10DAE000C0B270474C1B002070B50400072000290D
:10DAF00001D08D0700D070BD01261C481C4D01606F
:10DB00001C490A801C4A13602B681E4209D08023DE
:10DB10001A49EE502000FFF769FF002807D02E6059
:10DB2000E9E716492000FFF761FF0028E3D101244F
:10DB3000134B1C70FEF7B6F9C5230D4A9B00D35852
:10DB40009B0D1C4208D00F4B5968002906D1802339
:10DB5000DB0313600020CEE70B48CCE78022196876
:10DB6000D2030A431A600020C5E7C046541B0020B8
:10DB700000E100E0401B0020481B0020F9D9010013
:10DB80004C1B0020581B00200220000010B5094B40
:10DB90001B68002B06D09847002800D110BDFDF768
:10DBA00031FCFBE7044B1B78002BF7D0FFF728FF75
:10DBB000F4E7C046481B00204C1B002070B5140041
:10DBC00005000E00142200212000FDF71FFB00239A
:10DBD00001222361237B2280934323732672657283
:10DBE000002D01D00123A372002070BD00B5054BAC
:10DBF00083B00193019B69460093FFF7F9FE019BF7
:10DC000003B000BD70180020002243088B4274D37B
:10DC100003098B425FD3030A8B4244D3030B8B422D
:10DC200028D3030C8B420DD3FF22090212BA030C36
:10DC30008B4202D31212090265D0030B8B4219D317
:10DC400000E0090AC30B8B4201D3CB03C01A524137
:10DC5000830B8B4201D38B03C01A5241430B8B427F
:10DC600001D34B03C01A5241030B8B4201D30B0368
:10DC7000C01A5241C30A8B4201D3CB02C01A52418F
:10DC8000830A8B4201D38B02C01A5241430A8B4252
:10DC900001D34B02C01A5241030A8B4201D30B023B
:10DCA000C01A5241CDD2C3098B4201D3CB01C01A55
:10DCB000524183098B4201D38B01C01A524143095F
:10DCC0008B4201D34B01C01A524103098B4201D34D
:10DCD0000B01C01A5241C3088B4201D3CB00C01ABA
:10DCE000524183088B4201D38B00C01A5241430832
:10DCF0008B4201D34B00C01A5241411A00D2014657
:10DD0000524110467047FFE701B5002000F006F8C9
:10DD100002BDC0460029F7D076E770477047C0467D
:10DD2000002310B59A4200D110BDCC5CC45401331D
:10DD3000F8E70000F8B5C046F8BC08BC9E4670473E
:10DD4000F8B5C046F8BC08BC9E4670477018002065
:10DD50001C190020100C0F00AAC90100B4C9010051
:10DD6000B4C90100FEC9010024CA010046CA01006D
:10DD70006ACA01003ACA010036C901001AC9010085
:10DD800036C901001AC90100CEC901004EC90100FF
:10DD90004EC901004EC901004EC901004EC9010023
:10DDA00088C9010092C90100EEC90100D8C901006B
:10DDB000A2C90100A2C901008CCC01009ACC0100CB
:10DDC0009ACC0100AACB0100C6CB0100DECB01003A
:10DDD00008CC010080CB010052CB010034CB010004
:10DDE00052CB010034CB010016CC010024CC010041
:10DDF00024CC010024CC010024CC010024CC01005F
:10DE00005ECC01006CCC01006CCB010090CB01001A
:10DE100080CC010080CC01000800030035C801005F
:10DE20001200030035C80100E81900200C1A002078
:0CDE30003C1A002000100200000000005E
:08DE3C00E4D2FF7F01000000A9
:10DE440000000000000000000000000000000000CE
:10DE540000000000000000000000000000000000BE
:10DE640000000000000000000000000000000000AE
:10DE7400000000000000000000000000000000009E
:10DE8400000000000000000000000000000000008E
:10DE9400000000000000000000000000000000007E
:10DEA40002150112233445566778899AABBCCDDE3E
:10DEB400EFF001020304C3000024F400E9B0010000
:08DEC400C1B0010000000000E4
:040000031000D8B958
:00000001FF
